{
  "abi": [
    {
      "inputs": [
        {
          "internalType": "string",
          "name": "name_",
          "type": "string"
        },
        {
          "internalType": "string",
          "name": "symbol_",
          "type": "string"
        }
      ],
      "stateMutability": "nonpayable",
      "type": "constructor"
    },
    {
      "inputs": [],
      "name": "CallerNotAuthorized",
      "type": "error"
    },
    {
      "inputs": [],
      "name": "ProfileAlreadyMinted",
      "type": "error"
    },
    {
      "inputs": [],
      "name": "ProfileDoesNotExist",
      "type": "error"
    },
    {
      "inputs": [],
      "name": "ProfilesAreSoulBound",
      "type": "error"
    },
    {
      "anonymous": false,
      "inputs": [
        {
          "indexed": true,
          "internalType": "address",
          "name": "owner",
          "type": "address"
        },
        {
          "indexed": true,
          "internalType": "address",
          "name": "approved",
          "type": "address"
        },
        {
          "indexed": true,
          "internalType": "uint256",
          "name": "tokenId",
          "type": "uint256"
        }
      ],
      "name": "Approval",
      "type": "event"
    },
    {
      "anonymous": false,
      "inputs": [
        {
          "indexed": true,
          "internalType": "address",
          "name": "owner",
          "type": "address"
        },
        {
          "indexed": true,
          "internalType": "address",
          "name": "operator",
          "type": "address"
        },
        {
          "indexed": false,
          "internalType": "bool",
          "name": "approved",
          "type": "bool"
        }
      ],
      "name": "ApprovalForAll",
      "type": "event"
    },
    {
      "anonymous": false,
      "inputs": [
        {
          "indexed": false,
          "internalType": "uint256",
          "name": "_fromTokenId",
          "type": "uint256"
        },
        {
          "indexed": false,
          "internalType": "uint256",
          "name": "_toTokenId",
          "type": "uint256"
        }
      ],
      "name": "BatchMetadataUpdate",
      "type": "event"
    },
    {
      "anonymous": false,
      "inputs": [
        {
          "indexed": false,
          "internalType": "uint256",
          "name": "_tokenId",
          "type": "uint256"
        }
      ],
      "name": "MetadataUpdate",
      "type": "event"
    },
    {
      "anonymous": false,
      "inputs": [
        {
          "indexed": true,
          "internalType": "address",
          "name": "from",
          "type": "address"
        },
        {
          "indexed": true,
          "internalType": "address",
          "name": "to",
          "type": "address"
        },
        {
          "indexed": true,
          "internalType": "uint256",
          "name": "tokenId",
          "type": "uint256"
        }
      ],
      "name": "Transfer",
      "type": "event"
    },
    {
      "inputs": [
        {
          "internalType": "address",
          "name": "account",
          "type": "address"
        }
      ],
      "name": "accountUri",
      "outputs": [
        {
          "internalType": "string",
          "name": "",
          "type": "string"
        }
      ],
      "stateMutability": "view",
      "type": "function"
    },
    {
      "inputs": [
        {
          "internalType": "address",
          "name": "",
          "type": "address"
        },
        {
          "internalType": "uint256",
          "name": "",
          "type": "uint256"
        }
      ],
      "name": "approve",
      "outputs": [],
      "stateMutability": "nonpayable",
      "type": "function"
    },
    {
      "inputs": [
        {
          "internalType": "address",
          "name": "account",
          "type": "address"
        }
      ],
      "name": "balanceOf",
      "outputs": [
        {
          "internalType": "uint256",
          "name": "balance",
          "type": "uint256"
        }
      ],
      "stateMutability": "view",
      "type": "function"
    },
    {
      "inputs": [
        {
          "internalType": "uint256",
          "name": "",
          "type": "uint256"
        }
      ],
      "name": "getApproved",
      "outputs": [
        {
          "internalType": "address",
          "name": "",
          "type": "address"
        }
      ],
      "stateMutability": "view",
      "type": "function"
    },
    {
      "inputs": [
        {
          "internalType": "address",
          "name": "",
          "type": "address"
        },
        {
          "internalType": "address",
          "name": "",
          "type": "address"
        }
      ],
      "name": "isApprovedForAll",
      "outputs": [
        {
          "internalType": "bool",
          "name": "",
          "type": "bool"
        }
      ],
      "stateMutability": "view",
      "type": "function"
    },
    {
      "inputs": [
        {
          "internalType": "string",
          "name": "uri",
          "type": "string"
        }
      ],
      "name": "mint",
      "outputs": [],
      "stateMutability": "nonpayable",
      "type": "function"
    },
    {
      "inputs": [
        {
          "internalType": "address",
          "name": "kontract",
          "type": "address"
        },
        {
          "internalType": "string",
          "name": "uri",
          "type": "string"
        }
      ],
      "name": "mintFor",
      "outputs": [],
      "stateMutability": "nonpayable",
      "type": "function"
    },
    {
      "inputs": [],
      "name": "name",
      "outputs": [
        {
          "internalType": "string",
          "name": "",
          "type": "string"
        }
      ],
      "stateMutability": "view",
      "type": "function"
    },
    {
      "inputs": [
        {
          "internalType": "uint256",
          "name": "tokenId",
          "type": "uint256"
        }
      ],
      "name": "ownerOf",
      "outputs": [
        {
          "internalType": "address",
          "name": "",
          "type": "address"
        }
      ],
      "stateMutability": "view",
      "type": "function"
    },
    {
      "inputs": [
        {
          "internalType": "address",
          "name": "",
          "type": "address"
        },
        {
          "internalType": "address",
          "name": "",
          "type": "address"
        },
        {
          "internalType": "uint256",
          "name": "",
          "type": "uint256"
        }
      ],
      "name": "safeTransferFrom",
      "outputs": [],
      "stateMutability": "pure",
      "type": "function"
    },
    {
      "inputs": [
        {
          "internalType": "address",
          "name": "",
          "type": "address"
        },
        {
          "internalType": "address",
          "name": "",
          "type": "address"
        },
        {
          "internalType": "uint256",
          "name": "",
          "type": "uint256"
        },
        {
          "internalType": "bytes",
          "name": "",
          "type": "bytes"
        }
      ],
      "name": "safeTransferFrom",
      "outputs": [],
      "stateMutability": "nonpayable",
      "type": "function"
    },
    {
      "inputs": [
        {
          "internalType": "address",
          "name": "",
          "type": "address"
        },
        {
          "internalType": "bool",
          "name": "",
          "type": "bool"
        }
      ],
      "name": "setApprovalForAll",
      "outputs": [],
      "stateMutability": "nonpayable",
      "type": "function"
    },
    {
      "inputs": [
        {
          "internalType": "bytes4",
          "name": "interfaceId",
          "type": "bytes4"
        }
      ],
      "name": "supportsInterface",
      "outputs": [
        {
          "internalType": "bool",
          "name": "",
          "type": "bool"
        }
      ],
      "stateMutability": "view",
      "type": "function"
    },
    {
      "inputs": [],
      "name": "symbol",
      "outputs": [
        {
          "internalType": "string",
          "name": "",
          "type": "string"
        }
      ],
      "stateMutability": "view",
      "type": "function"
    },
    {
      "inputs": [
        {
          "internalType": "uint256",
          "name": "tokenId",
          "type": "uint256"
        }
      ],
      "name": "tokenURI",
      "outputs": [
        {
          "internalType": "string",
          "name": "",
          "type": "string"
        }
      ],
      "stateMutability": "view",
      "type": "function"
    },
    {
      "inputs": [],
      "name": "totalSupply",
      "outputs": [
        {
          "internalType": "uint256",
          "name": "",
          "type": "uint256"
        }
      ],
      "stateMutability": "view",
      "type": "function"
    },
    {
      "inputs": [
        {
          "internalType": "address",
          "name": "",
          "type": "address"
        },
        {
          "internalType": "address",
          "name": "",
          "type": "address"
        },
        {
          "internalType": "uint256",
          "name": "",
          "type": "uint256"
        }
      ],
      "name": "transferFrom",
      "outputs": [],
      "stateMutability": "nonpayable",
      "type": "function"
    },
    {
      "inputs": [
        {
          "internalType": "string",
          "name": "uri",
          "type": "string"
        }
      ],
      "name": "updateProfile",
      "outputs": [],
      "stateMutability": "nonpayable",
      "type": "function"
    },
    {
      "inputs": [
        {
          "internalType": "address",
          "name": "kontract",
          "type": "address"
        },
        {
          "internalType": "string",
          "name": "uri",
          "type": "string"
        }
      ],
      "name": "updateProfileFor",
      "outputs": [],
      "stateMutability": "nonpayable",
      "type": "function"
    }
  ],
  "bytecode": {
    "object": "0x608060405260006002553480156200001657600080fd5b50604051620012a5380380620012a5833981016040819052620000399162000124565b60006200004783826200021d565b5060016200005682826200021d565b505050620002e9565b634e487b7160e01b600052604160045260246000fd5b600082601f8301126200008757600080fd5b81516001600160401b0380821115620000a457620000a46200005f565b604051601f8301601f19908116603f01168101908282118183101715620000cf57620000cf6200005f565b81604052838152602092508683858801011115620000ec57600080fd5b600091505b83821015620001105785820183015181830184015290820190620000f1565b600093810190920192909252949350505050565b600080604083850312156200013857600080fd5b82516001600160401b03808211156200015057600080fd5b6200015e8683870162000075565b935060208501519150808211156200017557600080fd5b50620001848582860162000075565b9150509250929050565b600181811c90821680620001a357607f821691505b602082108103620001c457634e487b7160e01b600052602260045260246000fd5b50919050565b601f8211156200021857600081815260208120601f850160051c81016020861015620001f35750805b601f850160051c820191505b818110156200021457828155600101620001ff565b5050505b505050565b81516001600160401b038111156200023957620002396200005f565b62000251816200024a84546200018e565b84620001ca565b602080601f831160018114620002895760008415620002705750858301515b600019600386901b1c1916600185901b17855562000214565b600085815260208120601f198616915b82811015620002ba5788860151825594840194600190910190840162000299565b5085821015620002d95787850151600019600388901b60f8161c191681555b5050505050600190811b01905550565b610fac80620002f96000396000f3fe608060405234801561001057600080fd5b50600436106101205760003560e01c80636352211e116100ad578063b88d4fde11610071578063b88d4fde1461023c578063c4db6b3c1461024a578063c87b56dd1461025d578063d85d3d2714610270578063e985e9c51461028357600080fd5b80636352211e146101ed57806369ef7b861461020057806370a082311461021357806395d89b4114610226578063a22cb4651461022e57600080fd5b8063095ea7b3116100f4578063095ea7b3146101a257806318160ddd146101b557806323b872dd146101cc57806342842e0e146101cc5780634ed6a5f7146101da57600080fd5b80629299e31461012557806301ffc9a71461013a57806306fdde0314610162578063081812fc14610177575b600080fd5b610138610133366004610a8f565b610299565b005b61014d610148366004610ad1565b61031c565b60405190151581526020015b60405180910390f35b61016a61039c565b6040516101599190610b02565b61018a610185366004610b50565b61042e565b6040516001600160a01b039091168152602001610159565b6101386101b0366004610b81565b610449565b6101be60025481565b604051908152602001610159565b6101386101b0366004610bad565b6101386101e8366004610bee565b610462565b61018a6101fb366004610b50565b610657565b61016a61020e366004610c43565b6106a8565b6101be610221366004610c43565b6106cd565b61016a6106fb565b6101386101b0366004610c6e565b6101386101b0366004610cbd565b610138610258366004610bee565b61070a565b61016a61026b366004610b50565b6108ae565b61013861027e366004610a8f565b610984565b61014d610291366004610d9d565b600092915050565b33600090815260046020526040812054908190036102ca57604051635a05a1b160e01b815260040160405180910390fd5b60008181526005602052604090206102e3838583610e54565b506040518181527ff8e1a15aba9398e019f0b49df1a4fde98ee17ae345cb5f6b5e2c27f5033e8ce79060200160405180910390a1505050565b60006001600160e01b031982166380ac58cd60e01b148061034d57506001600160e01b03198216635b5e139f60e01b145b8061036857506001600160e01b03198216633b2d118960e01b145b8061037b57506001600160e01b03198216155b8061039657506301ffc9a760e01b6001600160e01b03198316145b92915050565b6060600080546103ab90610dcb565b80601f01602080910402602001604051908101604052809291908181526020018280546103d790610dcb565b80156104245780601f106103f957610100808354040283529160200191610424565b820191906000526020600020905b81548152906001019060200180831161040757829003601f168201915b5050505050905090565b60006040516316119f0760e21b815260040160405180910390fd5b6040516316119f0760e21b815260040160405180910390fd5b826000816001600160a01b0316638da5cb5b6040518163ffffffff1660e01b8152600401602060405180830381865afa9250505080156104bf575060408051601f3d908101601f191682019092526104bc91810190610f15565b60015b156104db57336001600160a01b038216036104d957600191505b505b8061055957604051632474521560e21b8152600060048201523360248201526001600160a01b038316906391d1485490604401602060405180830381865afa925050508015610547575060408051601f3d908101601f1916820190925261054491810190610f32565b60015b1561055957801561055757600191505b505b806105775760405163c183bcef60e01b815260040160405180910390fd5b6001600160a01b038516600090815260046020526040902054156105ae57604051636a752df960e01b815260040160405180910390fd5b600280549060006105be83610f4f565b9091555050600280546001600160a01b03871660008181526004602090815260408083208590559382526003815283822080546001600160a01b03191690931790925592548352600590529020610616848683610e54565b506002546040516001600160a01b0387169030907fddf252ad1be2c89b69c2b068fc378daa952ba7f163c4a11628f55a4df523b3ef90600090a45050505050565b6000818152600360205260408120546001600160a01b031661068c57604051635a05a1b160e01b815260040160405180910390fd5b506000908152600360205260409020546001600160a01b031690565b6001600160a01b038116600090815260046020526040902054606090610396906108ae565b6001600160a01b038116600090815260046020526040812054156106f357506001919050565b506000919050565b6060600180546103ab90610dcb565b826000816001600160a01b0316638da5cb5b6040518163ffffffff1660e01b8152600401602060405180830381865afa925050508015610767575060408051601f3d908101601f1916820190925261076491810190610f15565b60015b1561078357336001600160a01b0382160361078157600191505b505b8061080157604051632474521560e21b8152600060048201523360248201526001600160a01b038316906391d1485490604401602060405180830381865afa9250505080156107ef575060408051601f3d908101601f191682019092526107ec91810190610f32565b60015b156108015780156107ff57600191505b505b8061081f5760405163c183bcef60e01b815260040160405180910390fd5b6001600160a01b0385166000908152600460205260408120549081900361085957604051635a05a1b160e01b815260040160405180910390fd5b6000818152600560205260409020610872858783610e54565b506040518181527ff8e1a15aba9398e019f0b49df1a4fde98ee17ae345cb5f6b5e2c27f5033e8ce79060200160405180910390a1505050505050565b6000818152600360205260409020546060906001600160a01b03166108e657604051635a05a1b160e01b815260040160405180910390fd5b600082815260056020526040902080546108ff90610dcb565b80601f016020809104026020016040519081016040528092919081815260200182805461092b90610dcb565b80156109785780601f1061094d57610100808354040283529160200191610978565b820191906000526020600020905b81548152906001019060200180831161095b57829003601f168201915b50505050509050919050565b33600090815260046020526040902054156109b257604051636a752df960e01b815260040160405180910390fd5b600280549060006109c283610f4f565b9091555050600280543360008181526004602090815260408083208590559382526003815283822080546001600160a01b03191690931790925592548352600590529020610a11828483610e54565b50600254604051339030907fddf252ad1be2c89b69c2b068fc378daa952ba7f163c4a11628f55a4df523b3ef90600090a45050565b60008083601f840112610a5857600080fd5b50813567ffffffffffffffff811115610a7057600080fd5b602083019150836020828501011115610a8857600080fd5b9250929050565b60008060208385031215610aa257600080fd5b823567ffffffffffffffff811115610ab957600080fd5b610ac585828601610a46565b90969095509350505050565b600060208284031215610ae357600080fd5b81356001600160e01b031981168114610afb57600080fd5b9392505050565b600060208083528351808285015260005b81811015610b2f57858101830151858201604001528201610b13565b506000604082860101526040601f19601f8301168501019250505092915050565b600060208284031215610b6257600080fd5b5035919050565b6001600160a01b0381168114610b7e57600080fd5b50565b60008060408385031215610b9457600080fd5b8235610b9f81610b69565b946020939093013593505050565b600080600060608486031215610bc257600080fd5b8335610bcd81610b69565b92506020840135610bdd81610b69565b929592945050506040919091013590565b600080600060408486031215610c0357600080fd5b8335610c0e81610b69565b9250602084013567ffffffffffffffff811115610c2a57600080fd5b610c3686828701610a46565b9497909650939450505050565b600060208284031215610c5557600080fd5b8135610afb81610b69565b8015158114610b7e57600080fd5b60008060408385031215610c8157600080fd5b8235610c8c81610b69565b91506020830135610c9c81610c60565b809150509250929050565b634e487b7160e01b600052604160045260246000fd5b60008060008060808587031215610cd357600080fd5b8435610cde81610b69565b93506020850135610cee81610b69565b925060408501359150606085013567ffffffffffffffff80821115610d1257600080fd5b818701915087601f830112610d2657600080fd5b813581811115610d3857610d38610ca7565b604051601f8201601f19908116603f01168101908382118183101715610d6057610d60610ca7565b816040528281528a6020848701011115610d7957600080fd5b82602086016020830137600060208483010152809550505050505092959194509250565b60008060408385031215610db057600080fd5b8235610dbb81610b69565b91506020830135610c9c81610b69565b600181811c90821680610ddf57607f821691505b602082108103610dff57634e487b7160e01b600052602260045260246000fd5b50919050565b601f821115610e4f57600081815260208120601f850160051c81016020861015610e2c5750805b601f850160051c820191505b81811015610e4b57828155600101610e38565b5050505b505050565b67ffffffffffffffff831115610e6c57610e6c610ca7565b610e8083610e7a8354610dcb565b83610e05565b6000601f841160018114610eb45760008515610e9c5750838201355b600019600387901b1c1916600186901b178355610f0e565b600083815260209020601f19861690835b82811015610ee55786850135825560209485019460019092019101610ec5565b5086821015610f025760001960f88860031b161c19848701351681555b505060018560011b0183555b5050505050565b600060208284031215610f2757600080fd5b8151610afb81610b69565b600060208284031215610f4457600080fd5b8151610afb81610c60565b600060018201610f6f57634e487b7160e01b600052601160045260246000fd5b506001019056fea2646970667358221220b1c041eff860af191887723d129f5ee2f67db1163dec1eb2078e814519c8410864736f6c63430008150033",
    "linkReferences": {}
  },
  "methodIdentifiers": {
    "accountUri(address)": "69ef7b86",
    "approve(address,uint256)": "095ea7b3",
    "balanceOf(address)": "70a08231",
    "getApproved(uint256)": "081812fc",
    "isApprovedForAll(address,address)": "e985e9c5",
    "mint(string)": "d85d3d27",
    "mintFor(address,string)": "4ed6a5f7",
    "name()": "06fdde03",
    "ownerOf(uint256)": "6352211e",
    "safeTransferFrom(address,address,uint256)": "42842e0e",
    "safeTransferFrom(address,address,uint256,bytes)": "b88d4fde",
    "setApprovalForAll(address,bool)": "a22cb465",
    "supportsInterface(bytes4)": "01ffc9a7",
    "symbol()": "95d89b41",
    "tokenURI(uint256)": "c87b56dd",
    "totalSupply()": "18160ddd",
    "transferFrom(address,address,uint256)": "23b872dd",
    "updateProfile(string)": "009299e3",
    "updateProfileFor(address,string)": "c4db6b3c"
  },
  "storageLayout": {
    "storage": [
      {
        "astId": 60134,
        "contract": "src/Profile.sol:Profile",
        "label": "_name",
        "offset": 0,
        "slot": "0",
        "type": "t_string_storage"
      },
      {
        "astId": 60136,
        "contract": "src/Profile.sol:Profile",
        "label": "_symbol",
        "offset": 0,
        "slot": "1",
        "type": "t_string_storage"
      },
      {
        "astId": 60139,
        "contract": "src/Profile.sol:Profile",
        "label": "totalSupply",
        "offset": 0,
        "slot": "2",
        "type": "t_uint256"
      },
      {
        "astId": 60143,
        "contract": "src/Profile.sol:Profile",
        "label": "_tokenToAccount",
        "offset": 0,
        "slot": "3",
        "type": "t_mapping(t_uint256,t_address)"
      },
      {
        "astId": 60147,
        "contract": "src/Profile.sol:Profile",
        "label": "_accountToToken",
        "offset": 0,
        "slot": "4",
        "type": "t_mapping(t_address,t_uint256)"
      },
      {
        "astId": 60151,
        "contract": "src/Profile.sol:Profile",
        "label": "_tokenToUri",
        "offset": 0,
        "slot": "5",
        "type": "t_mapping(t_uint256,t_string_storage)"
      }
    ],
    "types": {
      "t_address": {
        "encoding": "inplace",
        "label": "address",
        "numberOfBytes": "20"
      },
      "t_mapping(t_address,t_uint256)": {
        "encoding": "mapping",
        "key": "t_address",
        "label": "mapping(address => uint256)",
        "numberOfBytes": "32",
        "value": "t_uint256"
      },
      "t_mapping(t_uint256,t_address)": {
        "encoding": "mapping",
        "key": "t_uint256",
        "label": "mapping(uint256 => address)",
        "numberOfBytes": "32",
        "value": "t_address"
      },
      "t_mapping(t_uint256,t_string_storage)": {
        "encoding": "mapping",
        "key": "t_uint256",
        "label": "mapping(uint256 => string)",
        "numberOfBytes": "32",
        "value": "t_string_storage"
      },
      "t_string_storage": {
        "encoding": "bytes",
        "label": "string",
        "numberOfBytes": "32"
      },
      "t_uint256": {
        "encoding": "inplace",
        "label": "uint256",
        "numberOfBytes": "32"
      }
    }
  },
  "id": 86
}